:100000000C942A000C9447000C9447000C94470071
:100010000C9447000C9447000C9447000C94470044
:100020000C9447000C9447000C9447000C94470034
:100030000C9447000C9447000C9447000C94470024
:100040000C9466080C9447000C9447000C944700ED
:100050000C94470011241FBECFE5D8E0DEBFCDBF12
:1000600011E0A0E6B0E0EAEEFDE202C005900D92DC
:10007000A43AB107D9F711E0A4EAB1E001C01D929A
:10008000A03BB107E1F70E949F160C94F3160C9465
:100090000000EF92FF920F931F937B018C0120E0F1
:1000A00030E040E05FE40E94F50388238CF0C80153
:1000B000B70120E030E040E05FE40E94C1010E940F
:1000C00055049B01AC01205030404040504806C0D0
:1000D000C801B7010E9455049B01AC01B901CA01D6
:1000E0001F910F91FF90EF900895A0E0B0E0EBE733
:1000F000F0E00C94BC16DC012B01FA019C919230CB
:1001000008F439C1EB018881823008F433C194309E
:1001100069F4843009F02FC111969C91119789815F
:10012000981709F428C1ACE7B0E025C1843009F480
:1001300021C18230A9F4923009F01DC19A01AD01AC
:1001400088E0EA010990AE01E90109929E0181501F
:10015000C1F7E201898111969C918923818308C1AD
:10016000923009F407C112962D903C901397EB0141
:100170008A819B811496AD90BD90CD90DC901797AD
:10018000EC80FD800E811F819101281B390BB90184
:1001900037FF04C066277727621B730B6032710537
:1001A0000CF061C0121613066CF537014801062EDB
:1001B00004C096948794779467940A94D2F721E0C8
:1001C00030E040E050E004C0220F331F441F551FB1
:1001D0006A95D2F721503040404050402E213F21B7
:1001E00040235123211531054105510521F021E01E
:1001F00030E040E050E079018A01E628F72808293C
:1002000019293CC0232BD1F1260E371E350146019A
:10021000062E04C096948794779467940A94D2F734
:1002200021E030E040E050E004C0220F331F441FC3
:10023000551F6A95D2F721503040404050402A2146
:100240003B214C215D21211531054105510521F04E
:1002500021E030E040E050E059016A01A628B728CB
:10026000C828D9280BC0821593052CF01C01AA249C
:10027000BB24650103C0EE24FF24870111969C91E5
:10028000D20111968C91981709F445C0992339F041
:10029000A80197012A193B094C095D0906C0A6016E
:1002A00095012E193F09400B510B57FD08C01182D3
:1002B0003382228224833583468357831DC081E0A5
:1002C00081833382228288279927DC01821B930B4A
:1002D000A40BB50B84839583A683B7830DC0220F2F
:1002E000331F441F551F24833583468357838281E0
:1002F000938101979383828324813581468157813D
:10030000DA01C9010197A109B1098F5F9F4FAF4F72
:10031000BF4328F30BC0918333822282EA0CFB1C7B
:100320000C1D1D1DE482F5820683178383E0808304
:10033000248135814681578157FF1AC0C901AA27F8
:1003400097FDA095BA2F81709070A070B0705695EF
:10035000479537952795822B932BA42BB52B848318
:100360009583A683B7838281938101969383828349
:10037000DF0101C0D201CD01CDB7DEB7E2E10C94BF
:10038000D816A0E2B0E0E7ECF1E00C94C81669835F
:100390007A838B839C832D833E834F835887E9E048
:1003A000EE2EF12CEC0EFD1ECE010196B7010E943F
:1003B00046068E010F5E1F4FCE010596B8010E94C2
:1003C00046068A8991E089278A8BC701B801AE0168
:1003D000475E5F4F0E9475000E947105A096E6E09F
:1003E0000C94E416A0E2B0E0E8EFF1E00C94C8163B
:1003F00069837A838B839C832D833E834F835887C5
:10040000F9E0EF2EF12CEC0EFD1ECE010196B701A6
:100410000E9446068E010F5E1F4FCE010596B80161
:100420000E944606C701B801AE01475E5F4F0E94B9
:1004300075000E947105A096E6E00C94E416A0E217
:10044000B0E0E5E2F2E00C94BC1669837A838B831A
:100450009C832D833E834F835887CE010196BE0136
:10046000675F7F4F0E944606CE010596BE016F5E14
:100470007F4F0E9446069985923088F089898230A4
:10048000C8F0943019F4823051F404C0843029F457
:10049000923081F48CE790E0C6C0923049F420E0BD
:1004A0009A858A89981321E02A87CE010996BBC0D4
:1004B000823049F420E09A858A89981321E02A8BBA
:1004C000CE014196B0C02D843E844F8458886D88FB
:1004D0007E888F88988CEE24FF248701AA24BB2471
:1004E000650140E050E060E070E0E0E0F0E0C10174
:1004F00081709070892BE9F0E60CF71C081D191D1E
:100500009A01AB012A0D3B1D4C1D5D1D80E090E062
:10051000A0E0B0E0E614F7040805190520F481E036
:1005200090E0A0E0B0E0BA01A901480F591F6A1F8E
:100530007B1FAA0CBB1CCC1CDD1C97FE08C081E0F5
:1005400090E0A0E0B0E0A82AB92ACA2ADB2A3196B6
:10055000E032F10549F0660C771C881C991C569412
:10056000479437942794C3CFFA85EA892B893C892D
:100570008B859C85280F391F2E5F3F4F17C0CA01FE
:1005800081709070892B61F016950795F794E79428
:1005900080E090E0A0E0B0E8E82AF92A0A2B1B2BC3
:1005A00076956795579547952F5F3F4F77FDE7CF36
:1005B0000CC0440F551F661F771F17FD4160EE0CDE
:1005C000FF1C001F111F21503040403090E05907A0
:1005D00090E0690790E4790760F32B8F3C8FDB0193
:1005E000CA018F779070A070B07080349105A1051A
:1005F000B10561F447FD0AC0E114F10401051105DC
:1006000029F0405C5F4F6F4F7F4F40781A8EFE1786
:1006100011F081E08A8F4D8F5E8F6F8F78A383E01A
:10062000898FCE0149960E947105A096E2E10C9453
:10063000D816A8E1B0E0EFE1F3E00C94C4166983AA
:100640007A838B839C832D833E834F835887B9E0C5
:10065000EB2EF12CEC0EFD1ECE010196B7010E948F
:1006600046068E010F5E1F4FCE010596B8010E940F
:1006700046062985223008F47EC03989323010F4CC
:10068000B8017CC08A859A8989278A87243011F02D
:10069000223031F4231709F06EC06CE770E06EC0B1
:1006A000343039F41D861E861F86188A1C861B86E8
:1006B00004C0323021F484E08987B7015FC02B8504
:1006C0003C858B899C89281B390B3C872B87ED84C3
:1006D000FE840F851889AD88BE88CF88D88CEA142F
:1006E000FB040C051D0540F4EE0CFF1C001F111F40
:1006F000215030403C872B8720E030E040E050E044
:1007000080E090E0A0E0B0E460E070E0EA14FB0478
:100710000C051D0540F0282B392B4A2B5B2BEA18C2
:10072000FB080C091D09B695A79597958795EE0CC2
:10073000FF1C001F111F6F5F7F4F6F31710531F775
:10074000DA01C9018F779070A070B0708034910584
:10075000A105B10561F427FD0AC0E114F10401050A
:10076000110529F0205C3F4F4F4F5F4F20782D87B8
:100770003E874F87588BBE01675F7F4FCB010E943A
:1007800071056896EAE00C94E016A8E1B0E0EBECA5
:10079000F3E00C94C81669837A838B839C832D8342
:1007A0003E834F83588789E0E82EF12CEC0EFD1E26
:1007B000CE010196B7010E9446068E010F5E1F4FC3
:1007C000CE010596B8010E9446068985823040F028
:1007D0008989823028F0C701B8010E94BE0601C095
:1007E0008FEF6896E6E00C94E416A8E1B0E0EBEF3A
:1007F000F3E00C94C81669837A838B839C832D83E2
:100800003E834F83588789E0E82EF12CEC0EFD1EC5
:10081000CE010196B7010E9446068E010F5E1F4F62
:10082000CE010596B8010E9446068985823040F0C7
:100830008989823028F0C701B8010E94BE0601C034
:100840008FEF6896E6E00C94E416A8E1B0E0EBE2E6
:10085000F4E00C94C81669837A838B839C832D8380
:100860003E834F83588789E0E82EF12CEC0EFD1E65
:10087000CE010196B7010E9446068E010F5E1F4F02
:10088000CE010596B8010E9446068985823040F067
:100890008989823028F0C701B8010E94BE0601C0D4
:1008A00081E06896E6E00C94E416ACE0B0E0EBE59D
:1008B000F4E00C94CC1669837A838B839C83CE01FD
:1008C0000196BE016B5F7F4F0E9446068D8182308C
:1008D00061F1823050F1843021F48E81882351F10E
:1008E0002EC02F81388537FD20C06E812F31310514
:1008F0001CF06623F9F023C08EE190E0821B930B7D
:1009000029853A854B855C8504C056954795379572
:1009100027958A95D2F76623B1F05095409530958A
:1009200021953F4F4F4F5F4F0EC020E030E040E039
:1009300050E009C02FEF3FEF4FEF5FE704C020E02A
:1009400030E040E050E8B901CA012C96E2E00C9496
:10095000E816A8E0B0E0EFEAF4E00C94C4167B01DE
:100960008C01611571058105910519F482E0898377
:1009700060C083E089838EE1C82ED12CDC82CB82DB
:10098000ED82FE820F831887C801B7010E942205FD
:10099000FC013197F7FF3BC0222733272E1B3F0B6B
:1009A00057016801022E04C0D694C794B794A79447
:1009B0000A94D2F740E050E060E070E081E090E01F
:1009C000A0E0B0E004C0880F991FAA1FBB1F2A95A2
:1009D000D2F70197A109B1098E219F21A023B1234C
:1009E0000097A105B10521F041E050E060E070E022
:1009F0004A295B296C297D294D835E836F83788723
:100A00008EE190E08E1B9F0B9C838B8312C03097EE
:100A100081F00E2E04C0EE0CFF1C001F111F0A9463
:100A2000D2F7ED82FE820F831887CE1ADF0ADC82AE
:100A3000CB821A82CE0101960E9471052896EAE0C7
:100A40000C94E016EF92FF920F931F937B018C01A1
:100A500080E0E81680E0F80681E0080780E01807EB
:100A600088F48FEFE816F1040105110531F028F044
:100A700088E090E0A0E0B0E017C080E090E0A0E067
:100A8000B0E012C080E0E81680E0F80680E00807D9
:100A900081E0180728F088E190E0A0E0B0E004C011
:100AA00080E190E0A0E0B0E020E230E040E050E003
:100AB000281B390B4A0B5B0B04C016950795F7945E
:100AC000E7948A95D2F7F701EC57FF4F8081281BF6
:100AD000310941095109C9011F910F91FF90EF9010
:100AE0000895DF92EF92FF920F931F93FC01E48031
:100AF000F58006811781D1808081823048F480E0C2
:100B000090E0A0E1B0E0E82AF92A0A2B1B2BA5C04F
:100B1000843009F49FC0823021F4EE24FF24870141
:100B200005C0E114F1040105110519F4E0E0F0E05D
:100B300096C0628173819FEF623879070CF05BC0C9
:100B400022E83FEF261B370B2A3131052CF020E03D
:100B500030E040E050E02AC0B801A701022E04C0F6
:100B600076956795579547950A94D2F781E090E07E
:100B7000A0E0B0E004C0880F991FAA1FBB1F2A95F0
:100B8000D2F70197A109B1098E219F21A023B1239A
:100B90000097A105B10521F081E090E0A0E0B0E070
:100BA0009A01AB01282B392B4A2B5B2BDA01C901A7
:100BB0008F779070A070B07080349105A105B10559
:100BC00039F427FF09C0205C3F4F4F4F5F4F04C0EF
:100BD000215C3F4F4F4F5F4FE0E0F0E02030A0E05E
:100BE0003A07A0E04A07A0E45A0710F0E1E0F0E07D
:100BF00079018A0127C06038710564F5FB01E1586D
:100C0000FF4FD801C7018F779070A070B07080340B
:100C10009105A105B10539F4E7FE0DC080E490E02F
:100C2000A0E0B0E004C08FE390E0A0E0B0E0E80E08
:100C3000F91E0A1F1B1F17FF05C016950795F7948D
:100C4000E794319687E016950795F794E7948A958F
:100C5000D1F705C0EE24FF248701EFEFF0E06E2FFF
:100C6000679566276795902F9F77D794DD24D79453
:100C70008E2F8695492F462B582F5D29B701CA0123
:100C80001F910F91FF90EF90DF900895FC01DB0121
:100C9000408151812281622F6F7770E0221F2227CD
:100CA000221F9381892F880F822B282F30E0991FD4
:100CB0009927991F11969C93119721153105A9F534
:100CC000411551056105710511F482E037C082E8D4
:100CD0009FEF13969C938E9312979A01AB0167E056
:100CE000220F331F441F551F6A95D1F783E08C9361
:100CF0000DC0220F331F441F551F12968D919C91DA
:100D00001397019713969C938E931297203080E04F
:100D1000380780E0480780E4580758F314962D936D
:100D20003D934D935C93179708952F3F310579F4C8
:100D3000411551056105710519F484E08C930895FE
:100D400064FF03C081E08C9312C01C9210C02F5727
:100D5000304013963C932E93129783E08C9387E058
:100D6000440F551F661F771F8A95D1F7706414963C
:100D70004D935D936D937C93179708951F93DC01BA
:100D8000FB019C91923008F447C08081823008F4C6
:100D900043C0943051F411961C91843099F58181AF
:100DA000682F70E0611B71093FC0843021F09230E0
:100DB00031F48230B9F18181882389F12DC01196F7
:100DC0001C9111978230F1F081811817D9F4129695
:100DD0002D913C911397828193818217930794F010
:100DE00028173907BCF014968D919D910D90BC91F8
:100DF000A02D2481358146815781281739074A075C
:100E00005B0718F4112341F00AC082179307A40767
:100E1000B50740F4112319F061E070E005C06FEFF1
:100E20007FEF02C060E070E0CB011F910895DF9377
:100E3000CF93CDB7DEB7A7E2B0E0E7E2F0E0808184
:100E400080648C93A7E2B0E0E7E2F0E08081806804
:100E50008C93A7E2B0E0E7E2F0E0808180628C93BF
:100E6000A6E2B0E0E6E2F0E08081887F8C93A6E223
:100E7000B0E0E6E2F0E0808187608C93A6E2B0E02B
:100E8000E6E2F0E0808180688C93CF91DF91089555
:100E9000DF93CF9300D000D000D0CDB7DEB78C83E6
:100EA0007E836D8381E08B831A821982A7E2B0E092
:100EB000E7E2F0E08081807E8C93A7E2B0E0E7E299
:100EC000F0E090818C81892B8C93A6E2B0E0E6E281
:100ED000F0E0808180648C9305C089819A810196BD
:100EE0009A838983E6E2F0E0808182958F70882F73
:100EF00090E081709070009731F489819A8127E2A7
:100F00008031920751F389819A8127E280319207DB
:100F100011F41B820DC0A6E2B0E0E6E2F0E08081B1
:100F200080618C93E5E2F0E08081ED81FE81808339
:100F30008B8126960FB6F894DEBF0FBECDBFCF9142
:100F4000DF910895DF93CF93CDB7DEB727970FB624
:100F5000F894DEBF0FBECDBF8A837C836B835E8334
:100F60004D8381E08983809184018230E1F18B811E
:100F70009C81009721F08D819E81009711F4198248
:100F80002FC082E08093840181E08093AE018B8149
:100F90009C819093AC018093AB018D819E81909355
:100FA000A5018093A401A7E2B0E0E7E2F0E0808130
:100FB000807E8C93A7E2B0E0E7E2F0E090818A8146
:100FC000892B8C93A6E2B0E0E6E2F0E080818064B9
:100FD0008C93A6E2B0E0E6E2F0E0808188608C933A
:100FE00089818F8304C083E0898389818F838F8186
:100FF00027960FB6F894DEBF0FBECDBFCF91DF911D
:101000000895DF93CF9300D00F92CDB7DEB79B83C7
:101010008A8381E089838A819B81009709F4198200
:1010200080918401813009F04AC082E0809384017C
:10103000EA81FB81808191819093A7018093A60131
:10104000EA81FB81828193819093A9018093A80119
:10105000EA81FB8184818093AD01EA81FB818581F6
:1010600096819093A5018093A4011092AA01A7E212
:10107000B0E0E7E2F0E08081807E8C93A7E2B0E010
:10108000E7E2F0E040812091A6013091A701809134
:10109000AA01882F90E0F901E80FF91F8081842BC5
:1010A0008C93A6E2B0E0E6E2F0E0808180648C936D
:1010B000A6E2B0E0E6E2F0E0808180648C93898172
:1010C0000F900F900F90CF91DF9108951F920F9284
:1010D0000FB60F9211242F933F934F935F936F930B
:1010E0007F938F939F93AF93BF93EF93FF93DF9380
:1010F000CF93CDB7DEB7A091AB01B091AC01E5E2E3
:10110000F0E080818C9381E080938401E091A401E0
:10111000F091A5010995A6E2B0E0E6E2F0E0808159
:10112000877F8C93CF91DF91FF91EF91BF91AF912A
:101130009F918F917F916F915F914F913F912F91EF
:101140000F900FBE0F901F901895DF93CF930F92C3
:10115000CDB7DEB719820E946913898389818D33E7
:1011600039F48091AF01809389011092AF0120C0C2
:1011700089818F3FE9F08091AF01882F90E09C0139
:10118000220F331FC901880F991F880F991F820FE3
:10119000931F982F8981890F8093AF0181E06AE0C6
:1011A0000E94330E8091AF01882F90E00E94E30DE2
:1011B0000F90CF91DF910895DF93CF93CDB7DEB736
:1011C0000E94F70C80E690E00E94BA0D80E06AE091
:1011D0000E94330E80918A01882F90E00E94E30DD7
:1011E00081E060E00E94330E8CE690E00E94BA0D30
:1011F00081E06AE00E94330E80918901882F90E09F
:101200000E94E30DCF91DF910895DF93CF93CDB787
:10121000DEB72AE831E080E0B9010E94AF1480E037
:101220006AE00E94330E80918A01882F90E00E942C
:10123000E30DCF91DF910895DF93CF93CDB7DEB764
:1012400090918A0180918901891730F485E891E0B5
:1012500064E60E94E1130AC090918A01809189019D
:10126000891720F085E891E00E948314CF91DF91E7
:101270000895DF93CF93CDB7DEB70E94DC140E94B0
:1012800017070E94290D0E94FF140E94DC08CF91CD
:10129000DF910895DF93CF93CDB7DEB70E94A50805
:1012A0000E9405090E941C09CF91DF910895DF93E8
:1012B000CF93CDB7DEB76E970FB6F894DEBF0FBEF3
:1012C000CDBF8E8F8E8D807F8D8F83E060E040E07C
:1012D0000E94D61083E061E040E00E94D61082E0D8
:1012E0006D8D0E948D1083E062E041E00E94D61077
:1012F00080E090E0A0E0B0E4898F9A8FAB8FBC8F44
:10130000698D7A8D8B8D9C8D20E030E04AEF54E41E
:101310000E941F02DC01CB018D8B9E8BAF8BB88F9F
:101320006D897E898F89988D20E030E040E85FE309
:101330000E94250488232CF481E090E09C8B8B8B09
:101340003FC06D897E898F89988D20E03FEF4FE700
:1013500057E40E94C50318164CF5698D7A8D8B8D64
:101360009C8D20E030E040E251E40E941F02DC014D
:10137000CB01BC01CD010E944900DC01CB019C8B5B
:101380008B8B0FC088EC90E09A8B898B89899A8926
:101390000197F1F79A8B898B8B899C8901979C8B9C
:1013A0008B8B8B899C89009769F714C06D897E8926
:1013B0008F89988D0E944900DC01CB019C8B8B8B1F
:1013C0008B899C89988B8F878F8598890197F1F7F6
:1013D000988B8F8783E062E040E00E94D6108E8D6C
:1013E0008295807F8D8F82E06D8D0E948D1083E0CD
:1013F00062E041E00E94D61080E090E0A0E0B0E41E
:101400008B879C87AD87BE876B857C858D859E8508
:1014100020E030E04AEF54E40E941F02DC01CB01DF
:101420008F839887A987BA876F81788589859A8500
:1014300020E030E040E85FE30E94250488232CF49C
:1014400081E090E09E838D833FC06F8178858985A0
:101450009A8520E03FEF4FE757E40E94C503181636
:101460004CF56B857C858D859E8520E030E040E2E3
:1014700051E40E941F02DC01CB01BC01CD010E949E
:101480004900DC01CB019E838D830FC088EC90E086
:101490009C838B838B819C810197F1F79C838B8349
:1014A0008D819E8101979E838D838D819E81009782
:1014B00069F714C06F81788589859A850E944900F3
:1014C000DC01CB019E838D838D819E819A838983EC
:1014D00089819A810197F1F79A83898383E062E099
:1014E00040E00E94D6106E960FB6F894DEBF0FBE95
:1014F000CDBFCF91DF910895DF93CF93CDB7DEB706
:101500006E970FB6F894DEBF0FBECDBF8E8F8E8D57
:10151000807F8D8F83E060E041E00E94D61083E001
:1015200061E040E00E94D61082E06D8D0E948D1037
:1015300083E062E041E00E94D61080E090E0A0E00D
:10154000B0E4898F9A8FAB8FBC8F698D7A8D8B8D2C
:101550009C8D20E030E04AEF54E40E941F02DC0141
:10156000CB018D8B9E8BAF8BB88F6D897E898F89D8
:10157000988D20E030E040E85FE30E942504882356
:101580002CF481E090E09C8B8B8B3FC06D897E8931
:101590008F89988D20E03FEF4FE757E40E94C50305
:1015A00018164CF5698D7A8D8B8D9C8D20E030E07E
:1015B00040E251E40E941F02DC01CB01BC01CD01DD
:1015C0000E944900DC01CB019C8B8B8B0FC088EC07
:1015D00090E09A8B898B89899A890197F1F79A8B88
:1015E000898B8B899C8901979C8B8B8B8B899C89A0
:1015F000009769F714C06D897E898F89988D0E9444
:101600004900DC01CB019C8B8B8B8B899C89988B4F
:101610008F878F8598890197F1F7988B8F8783E063
:1016200062E040E00E94D6108E8D8295807F8D8F83
:1016300082E06D8D0E948D1083E062E041E00E94A7
:10164000D61080E090E0A0E0B0E48B879C87AD8767
:10165000BE876B857C858D859E8520E030E04AEFD6
:1016600054E40E941F02DC01CB018F839887A98775
:10167000BA876F81788589859A8520E030E040E8D7
:101680005FE30E94250488232CF481E090E09E8390
:101690008D833FC06F81788589859A8520E03FEFF3
:1016A0004FE757E40E94C50318164CF56B857C85FF
:1016B0008D859E8520E030E040E251E40E941F02CB
:1016C000DC01CB01BC01CD010E944900DC01CB0152
:1016D0009E838D830FC088EC90E09C838B838B81ED
:1016E0009C810197F1F79C838B838D819E8101976B
:1016F0009E838D838D819E81009769F714C06F81D1
:10170000788589859A850E944900DC01CB019E83FA
:101710008D838D819E819A83898389819A810197A6
:10172000F1F79A83898383E062E040E00E94D6105B
:101730006E960FB6F894DEBF0FBECDBFCF91DF918E
:101740000895DF93CF93CDB7DEB72F970FB6F894F8
:10175000DEBF0FBECDBF8F8783E060E040E00E9418
:10176000D61083E061E040E00E94D61082E06F85F1
:101770000E948D1083E062E041E00E94D61080E07C
:1017800090E0A0E0B0E48B879C87AD87BE876B8537
:101790007C858D859E8520E030E04AEF54E40E94F0
:1017A0001F02DC01CB018F839887A987BA876F81DD
:1017B000788589859A8520E030E040E85FE30E94E3
:1017C000250488232CF481E090E09E838D833FC024
:1017D0006F81788589859A8520E03FEF4FE757E450
:1017E0000E94C50318164CF56B857C858D859E85FA
:1017F00020E030E040E251E40E941F02DC01CB0116
:10180000BC01CD010E944900DC01CB019E838D8388
:101810000FC088EC90E09C838B838B819C81019727
:10182000F1F79C838B838D819E8101979E838D83AD
:101830008D819E81009769F714C06F8178858985B5
:101840009A850E944900DC01CB019E838D838D81A6
:101850009E819A83898389819A810197F1F79A837E
:10186000898383E062E040E00E94D6102F960FB695
:10187000F894DEBF0FBECDBFCF91DF910895DF9307
:10188000CF93CDB7DEB72F970FB6F894DEBF0FBE5C
:10189000CDBF8F8783E060E041E00E94D61083E0F7
:1018A00061E040E00E94D61082E06F850E948D10BA
:1018B00083E062E041E00E94D61080E090E0A0E08A
:1018C000B0E48B879C87AD87BE876B857C858D85D3
:1018D0009E8520E030E04AEF54E40E941F02DC01C4
:1018E000CB018F839887A987BA876F81788589858F
:1018F0009A8520E030E040E85FE30E9425048823D9
:101900002CF481E090E09E838D833FC06F817885C9
:1019100089859A8520E03FEF4FE757E40E94C50391
:1019200018164CF56B857C858D859E8520E030E012
:1019300040E251E40E941F02DC01CB01BC01CD0159
:101940000E944900DC01CB019E838D830FC088EC8F
:1019500090E09C838B838B819C810197F1F79C8322
:101960008B838D819E8101979E838D838D819E8146
:10197000009769F714C06F81788589859A850E94E0
:101980004900DC01CB019E838D838D819E819A83EA
:10199000898389819A810197F1F79A83898383E00A
:1019A00062E040E00E94D6102F960FB6F894DEBF9A
:1019B0000FBECDBFCF91DF910895DF93CF930F92EC
:1019C000CDB7DEB7898389810E947C0A0F90CF91C1
:1019D000DF910895DF93CF930F92CDB7DEB7898360
:1019E00089810E9457090F90CF91DF910895DF936D
:1019F000CF93CDB7DEB781E00E94EA0CCF91DF91A3
:101A00000895DF93CF93CDB7DEB788E00E94EA0C4C
:101A1000CF91DF910895DF93CF93CDB7DEB78AE002
:101A20000E94EA0CCF91DF910895DF93CF93CDB759
:101A3000DEB780E10E94EA0CCF91DF910895DF9339
:101A4000CF93CDB7DEB784E10E94EA0CCF91DF914E
:101A50000895DF93CF93CDB7DEB72E970FB6F894E6
:101A6000DEBF0FBECDBF80E090E0A0E2B2E48B8786
:101A70009C87AD87BE876B857C858D859E8520E0A4
:101A800030E04AEF54E40E941F02DC01CB018F8357
:101A90009887A987BA876F81788589859A8520E09C
:101AA00030E040E85FE30E94250488232CF481E0C5
:101AB00090E09E838D833FC06F81788589859A856C
:101AC00020E03FEF4FE757E40E94C50318164CF59E
:101AD0006B857C858D859E8520E030E040E251E479
:101AE0000E941F02DC01CB01BC01CD010E94490014
:101AF000DC01CB019E838D830FC088EC90E09C833A
:101B00008B838B819C810197F1F79C838B838D81E3
:101B10009E8101979E838D838D819E81009769F7B9
:101B200014C06F81788589859A850E944900DC01FF
:101B3000CB019E838D838D819E819A838983898148
:101B40009A810197F1F79A83898382E00E9457096D
:101B500088E20E9457098CE00E94570981E00E94A8
:101B600057092E960FB6F894DEBF0FBECDBFCF91AA
:101B7000DF910895DF93CF9300D00F92CDB7DEB7FA
:101B80009B838A8319820EC08981282F30E08A8145
:101B90009B81FC01E20FF31F80810E94DD0C898193
:101BA0008F5F89838981282F30E08A819B81FC01A6
:101BB000E20FF31F8081882339F70F900F900F9069
:101BC000CF91DF910895DF93CF93CDB7DEB7A49780
:101BD0000FB6F894DEBF0FBECDBF9CA38BA31982B6
:101BE0001DC08981E82FF0E08BA19CA12AE030E0A4
:101BF000B9010E94A816282FCE010396E80FF91FFD
:101C000020838BA19CA12AE030E0B9010E94A81694
:101C1000CB019CA38BA389818F5F89838BA19CA11E
:101C20000097F9F6898181508A8311C08A81282F13
:101C3000332727FD3095CE010396FC01E20FF31FF9
:101C40008081805D0E94DD0C8A8181508A838A8137
:101C5000882364F7A4960FB6F894DEBF0FBECDBFFD
:101C6000CF91DF910895DF93CF9300D00F92CDB73E
:101C7000DEB78A836B838A81882319F48B818983F9
:101C800006C08A81813019F48B81805C89838981C7
:101C900080580E94EA0C0F900F900F90CF91DF9127
:101CA0000895DF93CF93CDB7DEB72A970FB6F89498
:101CB000DEBF0FBECDBF8A836B834C838AE08983EE
:101CC0008B81883008F0D5C18C81813009F07EC0CD
:101CD0008A81282F30E03A87298789859A85813043
:101CE000910569F129853A85223031052CF48985E1
:101CF0009A85009769F068C029853A8522303105B8
:101D0000A9F189859A858330910509F446C05CC0A4
:101D1000A9E3B0E0E9E3F0E08181482F8B81282F2F
:101D200030E081E090E0022E02C0880F991F0A94F3
:101D3000E2F78095842311968C93119747C0A6E310
:101D4000B0E0E6E3F0E08181482F8B81282F30E07E
:101D500081E090E0022E02C0880F991F0A94E2F7FA
:101D60008095842311968C93119730C0A3E3B0E043
:101D7000E3E3F0E08181482F8B81282F30E081E080
:101D800090E0022E02C0880F991F0A94E2F7809516
:101D9000842311968C93119719C0A0E3B0E0E0E37F
:101DA000F0E08181482F8B81282F30E081E090E0A6
:101DB000022E02C0880F991F0A94E2F780958423AF
:101DC00011968C93119702C081E089838C818230B7
:101DD00009F0CDC08A81282F30E038872F838F818A
:101DE00098858130910509F441C02F8138852230D2
:101DF00031052CF48F819885009771F0B5C02F8143
:101E000038852230310509F45BC08F819885833095
:101E1000910509F47FC0A8C0A9E3B0E0E9E3F0E0D0
:101E20008181482F8B81282F30E081E090E002C033
:101E3000880F991F2A95E2F78095842311968C9339
:101E4000A9E3B0E0E9E3F0E08281482F8B81282FFD
:101E500030E081E090E0022E02C0880F991F0A94C2
:101E6000E2F7842B12968C93129704C1A6E3B0E09C
:101E7000E6E3F0E08181482F8B81282F30E081E07C
:101E800090E002C0880F991F2A95E2F7809584237D
:101E900011968C93A6E3B0E0E6E3F0E08281482F50
:101EA0008B81282F30E081E090E0022E02C0880F65
:101EB000991F0A94E2F7842B12968C931297DAC03A
:101EC000A3E3B0E0E3E3F0E08181482F8B81282F8A
:101ED00030E081E090E002C0880F991F2A95E2F778
:101EE0008095842311968C93A3E3B0E0E3E3F0E0C4
:101EF0008281482F8B81282F30E081E090E0022EF4
:101F000002C0880F991F0A94E2F7842B12968C93D3
:101F10001297B0C0A0E3B0E0E0E3F0E08181482F89
:101F20008B81282F30E081E090E002C0880F991F5C
:101F30002A95E2F78095842311968C93A0E3B0E074
:101F4000E0E3F0E08281482F8B81282F30E081E0B0
:101F500090E0022E02C0880F991F0A94E2F7842BAA
:101F600012968C93129786C081E0898383C08C81FE
:101F7000882309F07BC08A81282F30E03E832D839F
:101F80008D819E818130910561F12D813E812230CC
:101F900031052CF48D819E81009769F064C02D81FC
:101FA0003E812230310599F18D819E8183309105EA
:101FB00009F443C058C0A9E3B0E0E9E3F0E081814F
:101FC000482F8B81282F30E081E090E0022E02C064
:101FD000880F991F0A94E2F7842B11968C9311971E
:101FE00049C0A6E3B0E0E6E3F0E08181482F8B81B1
:101FF000282F30E081E090E0022E02C0880F991F68
:102000000A94E2F7842B11968C93119733C0A3E3C3
:10201000B0E0E3E3F0E08181482F8B81282F30E0AE
:1020200081E090E0022E02C0880F991F0A94E2F727
:10203000842B11968C9311971DC0A0E3B0E0E0E3D0
:10204000F0E08181482F8B81282F30E081E090E003
:10205000022E02C0880F991F0A94E2F7842B119672
:102060008C93119707C081E0898304C083E0898342
:1020700001C0198289812A960FB6F894DEBF0FBE7F
:10208000CDBFCF91DF910895DF93CF9300D000D0E3
:102090000F92CDB7DEB78A836B838AE089838A810A
:1020A000282F30E03D832C838C819D8181309105E8
:1020B000D1F02C813D81223031052CF48C819D8121
:1020C000009761F01FC02C813D812230310581F0E5
:1020D0008C819D818330910581F014C0E9E3F0E0AB
:1020E0008B81818311C0E6E3F0E08B8181830CC09A
:1020F000E3E3F0E08B81818307C0E0E3F0E08B81D4
:10210000818302C081E0898389810F900F900F90B5
:102110000F900F90CF91DF910895DF93CF9300D070
:1021200000D00F92CDB7DEB78A836B838AE08983B4
:102130008A81282F30E03D832C838C819D818130E2
:102140009105D1F02C813D81223031052CF48C8118
:102150009D81009761F01FC02C813D8122303105A7
:1021600081F08C819D818330910581F014C0E9E379
:10217000F0E08B81828311C0E6E3F0E08B81828303
:102180000CC0E3E3F0E08B81828307C0E0E3F0E082
:102190008B81828302C081E0898389810F900F90B7
:1021A0000F900F900F90CF91DF910895DF93CF9311
:1021B000CDB7DEB728970FB6F894DEBF0FBECDBF00
:1021C0008A836B834C838AE089838B81883008F013
:1021D00005C18C81882309F07FC08A81282F30E0D7
:1021E00038872F838F8198858130910569F12F8100
:1021F0003885223031052CF48F819885009769F05D
:1022000068C02F81388522303105A9F18F819885EA
:102210008330910509F446C05CC0A9E3B0E0E9E36E
:10222000F0E08281482F8B81282F30E081E090E020
:10223000022E02C0880F991F0A94E2F7809584232A
:1022400012968C931297CBC0A6E3B0E0E6E3F0E0E1
:102250008281482F8B81282F30E081E090E0022E90
:1022600002C0880F991F0A94E2F780958423129682
:102270008C931297B4C0A3E3B0E0E3E3F0E0828173
:10228000482F8B81282F30E081E090E0022E02C0A1
:10229000880F991F0A94E2F78095842312968C93F5
:1022A00012979DC0A0E3B0E0E0E3F0E08281482F08
:1022B0008B81282F30E081E090E0022E02C0880F51
:1022C000991F0A94E2F78095842312968C931297B3
:1022D00086C081E0898383C08C81813009F07BC016
:1022E0008A81282F30E03E832D838D819E8181302D
:1022F000910561F12D813E81223031052CF48D81D3
:102300009E81009769F064C02D813E8122303105A5
:1023100099F18D819E818330910509F443C058C0A5
:10232000A9E3B0E0E9E3F0E08281482F8B81282F18
:1023300030E081E090E0022E02C0880F991F0A94DD
:10234000E2F7842B12968C93129749C0A6E3B0E073
:10235000E6E3F0E08281482F8B81282F30E081E096
:1023600090E0022E02C0880F991F0A94E2F7842B96
:1023700012968C93129733C0A3E3B0E0E3E3F0E04E
:102380008281482F8B81282F30E081E090E0022E5F
:1023900002C0880F991F0A94E2F7842B12968C933F
:1023A00012971DC0A0E3B0E0E0E3F0E08281482F87
:1023B0008B81282F30E081E090E0022E02C0880F50
:1023C000991F0A94E2F7842B12968C93129707C0F8
:1023D00081E0898304C084E0898301C019828981F6
:1023E00028960FB6F894DEBF0FBECDBFCF91DF9118
:1023F0000895DF93CF9300D000D00F92CDB7DEB712
:102400008A836B838AE089838B81883008F07BC064
:102410008A81282F30E03D832C838C819D818130FF
:10242000910561F12C813D81223031052CF48C81A4
:102430009D81009769F064C02C813D812230310577
:1024400099F18C819D818330910509F443C058C076
:10245000A9E3B0E0E9E3F0E08281482F8B81282FE7
:1024600030E081E090E0022E02C0880F991F0A94AC
:10247000E2F7842712968C93129746C0A6E3B0E049
:10248000E6E3F0E08281482F8B81282F30E081E065
:1024900090E0022E02C0880F991F0A94E2F7842769
:1024A00012968C93129730C0A3E3B0E0E3E3F0E020
:1024B0008281482F8B81282F30E081E090E0022E2E
:1024C00002C0880F991F0A94E2F7842712968C9312
:1024D00012971AC0A0E3B0E0E0E3F0E08281482F59
:1024E0008B81282F30E081E090E0022E02C0880F1F
:1024F000991F0A94E2F7842712968C93129704C0CE
:1025000081E0898301C0198289810F900F900F901B
:102510000F900F90CF91DF910895DF93CF93CDB7B8
:10252000DEB727970FB6F894DEBF0FBECDBF8A8304
:102530006B835D834C838AE089838C819D810097C6
:1025400009F47AC08B81883008F074C08A81282F02
:1025500030E03F832E834E815F814130510559F138
:102560008E819F818230910534F42E813F81211527
:10257000310569F05CC04E815F814230510579F1CF
:102580008E819F818330910509F43DC050C0E9E3FD
:10259000F0E08081282F30E08B81882F90E0A90126
:1025A00002C0559547958A95E2F7CA018170EC8182
:1025B000FD81808343C0E6E3F0E08081282F30E096
:1025C0008B81882F90E0A90102C0559547958A9587
:1025D000E2F7CA018170EC81FD8180832FC0E3E3C3
:1025E000F0E08081282F30E08B81882F90E0A901D6
:1025F00002C0559547958A95E2F7CA018170EC8132
:10260000FD8180831BC0E0E3F0E08081282F30E073
:102610008B81882F90E0A90102C0559547958A9536
:10262000E2F7CA018170EC81FD81808307C081E0FF
:10263000898304C0198202C085E089838981279635
:102640000FB6F894DEBF0FBECDBFCF91DF910895D6
:10265000DF93CF9300D00F92CDB7DEB79B838A83F1
:1026600084E089838A819B81009771F0EA81FB81F4
:102670008081EA81FB812181EA81FB819281622F45
:10268000492F0E94510E02C085E0898389810F90F5
:102690000F900F90CF91DF910895DF93CF93CDB737
:1026A000DEB7AFE5B0E0EFE5F0E0808180688C93C5
:1026B000CF91DF910895DF93CF93CDB7DEB7AFE52C
:1026C000B0E0EFE5F0E080818F778C93CF91DF91E0
:1026D0000895DF93CF9300D000D00F92CDB7DEB72F
:1026E0008FEF8B831A825EC08A81882F90E0FC0175
:1026F000E157FE4F908181E0692F40E00E94D610A3
:1027000019823DC08981882F90E0FC01E557FE4F7A
:1027100090819E012C5F3F4F81E0692FA9010E94AB
:102720008D128C81882341F58981482F50E08A8160
:10273000282F30E0CA01880F991F880F991F820F38
:10274000931FFC01ED56FE4F80818B830FC0898162
:10275000882F90E0FC01E557FE4F90819E012C5F91
:102760003F4F81E0692FA9010E948D128C8188233F
:1027700071F38B818D831CC089818F5F89838981EF
:10278000843008F4BFCF8A81882F90E0FC01E157A4
:10279000FE4F908181E0692F41E00E94D6108A812E
:1027A0008F5F8A838A81843008F49ECF8B818D83EA
:1027B0008D810F900F900F900F900F90CF91DF9120
:1027C0000895DF93CF9300D000D0CDB7DEB79B83C1
:1027D0008A836C838AE089838A819B810097C1F117
:1027E000EA81FB818381882329F48C8160E00E9447
:1027F0003E1519C0EA81FB818381813029F48C81E7
:1028000060E00E94D7150FC0EA81FB81838182308E
:1028100049F48C8160E00E943E158C8160E00E944A
:10282000D71501C01982EA81FB818081EA81FB8191
:102830009181692F41E00E94D610EA81FB8180815D
:10284000EA81FB819281692F40E00E94D61002C08C
:1028500085E0898389810F900F900F900F90CF9121
:10286000DF910895DF93CF9300D000D0CDB7DEB7CE
:102870009B838A836C838AE089838A819B8100970A
:10288000C1F1EA81FB818381882329F48C8160E096
:102890000E943E1519C0EA81FB818381813029F4B1
:1028A0008C8160E00E94D7150FC0EA81FB81838193
:1028B000823049F48C8160E00E943E158C8160E09A
:1028C0000E94D71501C01982EA81FB818081EA81CB
:1028D000FB819181692F40E00E94D610EA81FB8143
:1028E0008081EA81FB819281692F41E00E94D610AC
:1028F00002C085E0898389810F900F900F900F901F
:10290000CF91DF910895DF93CF9300D00F92CDB791
:10291000DEB79B838A838AE089838A819B810097C3
:10292000A9F0EA81FB818081EA81FB819181692F95
:1029300041E00E94D610EA81FB818081EA81FB811F
:102940009281692F41E00E94D61002C085E0898300
:1029500089810F900F900F90CF91DF910895DF93B1
:10296000CF93CDB7DEB727970FB6F894DEBF0FBE73
:10297000CDBF8D837F836E8381E08B838E819F812A
:10298000009779F08D81883060F49E012C5F3F4F75
:102990008D81B9010E9448078C81EE81FF8180837F
:1029A00001C01B828B8127960FB6F894DEBF0FBE45
:1029B000CDBFCF91DF910895DF93CF93CDB7DEB731
:1029C000EAE3F0E01082E7E3F0E08FE08083E4E305
:1029D000F0E08FEF8083E1E3F0E08FEF8083EBE3C3
:1029E000F0E01082E8E3F0E08FEF8083E5E3F0E0D1
:1029F0001082E2E3F0E01082CF91DF910895DF933F
:102A0000CF93CDB7DEB7AFE4B0E0EFE4F0E0808184
:102A100081608C93AFE4B0E0EFE4F0E080818D7FE3
:102A20008C93AEE4B0E0EEE4F0E08081877F8C939D
:102A3000AEE4B0E0EEE4F0E080818F7E8C93AFE412
:102A4000B0E0EFE4F0E080818F7B8C93AFE4B0E006
:102A5000EFE4F0E0808180688C93AEE4B0E0EEE4D7
:102A6000F0E08081887F8C93AEE4B0E0EEE4F0E0AB
:102A7000808182608C93CF91DF9108950F931F9393
:102A8000DF93CF9300D0CDB7DEB789836A838A8185
:102A9000882359F50AE410E08981882F90E0A0E0AE
:102AA000B0E0BC01CD010E94A904DC01CB01BC0156
:102AB000CD0120E030E048EC52E40E941903DC0133
:102AC000CB01BC01CD0120E030E04FE753E40E9490
:102AD0001F02DC01CB01BC01CD010E944900DC01D9
:102AE000CB01F801918380835BC08A81813059F5E5
:102AF0000AE410E08981882F90E0A0E0B0E0BC01FA
:102B0000CD010E94A904DC01CB01BC01CD0120E074
:102B100030E048EC52E40E941903DC01CB01BC0117
:102B2000CD0120E030E84FEF53E40E941F02DC01AA
:102B3000CB01BC01CD010E944900DC01CB01F801B1
:102B4000918380832DC08A81823051F50AE410E0A0
:102B50008981882F90E0A0E0B0E0BC01CD010E9407
:102B6000A904DC01CB01BC01CD0120E030E048EC40
:102B700052E40E941903DC01CB01BC01CD0120E02D
:102B800030EC4FE754E40E941F02DC01CB01BC0192
:102B9000CD010E944900DC01CB01F80191838083C3
:102BA0000F900F90CF91DF911F910F9108950F9388
:102BB0001F93DF93CF9300D0CDB7DEB789836A83AD
:102BC0008A81882359F508E410E08981882F90E0F4
:102BD000A0E0B0E0BC01CD010E94A904DC01CB0162
:102BE000BC01CD0120E030E048EC52E40E94190322
:102BF000DC01CB01BC01CD0120E030E04FE753E424
:102C00000E941F02DC01CB01BC01CD010E944900E2
:102C1000DC01CB01F801918380835BC08A81813024
:102C200059F508E410E08981882F90E0A0E0B0E039
:102C3000BC01CD010E94A904DC01CB01BC01CD0186
:102C400020E030E048EC52E40E941903DC01CB01A3
:102C5000BC01CD0120E030E84FEF53E40E941F0299
:102C6000DC01CB01BC01CD010E944900DC01CB019C
:102C7000F801918380832DC08A81823051F508E468
:102C800010E08981882F90E0A0E0B0E0BC01CD0188
:102C90000E94A904DC01CB01BC01CD0120E030E0A1
:102CA00048EC52E40E941903DC01CB01BC01CD01C8
:102CB00020E030EC4FE754E40E941F02DC01CB011E
:102CC000BC01CD010E944900DC01CB01F8019183D8
:102CD00080830F900F90CF91DF911F910F910895F6
:102CE000DF93CF9300D0CDB7DEB79A838983ECE42E
:102CF000F0E089819A81918380830F900F90CF912A
:102D0000DF910895DF93CF93CDB7DEB7ECE4F0E029
:102D100080819181CF91DF910895DF93CF9300D08F
:102D2000CDB7DEB79A838983EAE4F0E089819A819E
:102D3000918380830F900F90CF91DF910895DF935F
:102D4000CF93CDB7DEB70E9439090E944A09FDCF63
:102D5000AA1BBB1B51E107C0AA1FBB1FA617B707C1
:102D600010F0A61BB70B881F991F5A95A9F78095DD
:102D70009095BC01CD0108952F923F924F925F92A2
:102D80006F927F928F929F92AF92BF92CF92DF927B
:102D9000EF92FF920F931F93CF93DF93CDB7DEB7E0
:102DA000CA1BDB0B0FB6F894DEBF0FBECDBF099474
:102DB0002A88398848885F846E847D848C849B84CB
:102DC000AA84B984C884DF80EE80FD800C811B81D9
:102DD000AA81B981CE0FD11D0FB6F894DEBF0FBE08
:0A2DE000CDBFED010895F894FFCF78
:102DEA00437572722054454D503A20005365742041
:102DFA002054454D503A2020202043000000000076
:102E0A000000000000010202030303030404040497
:102E1A00040404040505050505050505050505055C
:102E2A00050505050606060606060606060606063C
:102E3A000606060606060606060606060606060628
:102E4A00060606060707070707070707070707070C
:102E5A0007070707070707070707070707070707F8
:102E6A0007070707070707070707070707070707E8
:102E7A0007070707070707070707070707070707D8
:102E8A0007070707080808080808080808080808BC
:102E9A0008080808080808080808080808080808A8
:102EAA000808080808080808080808080808080898
:102EBA000808080808080808080808080808080888
:102ECA000808080808080808080808080808080878
:102EDA000808080808080808080808080808080868
:102EEA000808080808080808080808080808080858
:102EFA000808080808080808080808080808080848
:102F0A000808080801030607001E0A040506070048
:102F1A000102030708092F0405062A0102032D618D
:042F2A00003D2B003B
:00000001FF
